:02000002B0004C
:1040000000400B0004530B00000006000C000502EA
:084010000401E50C00000000B2
:0440180000500B0049
:10401C0009480A49884208B505D0094A824202D0AB
:10402C00121A00F035FF0748074A0021121A00F057
:10403C003DFF014808BD00BF38E6032068520B0065
:10404C00ACE60320ACE60320EDE7032070B5074E89
:10405C00074C00F063FBA41BA4080025AC4200D164
:10406C0070BD56F8043B98470135F7E71C520B001E
:10407C0040520B0000F013B808B500F01BF8BDE877
:10408C00084000F003BB00F0EFB900F0F5B9007880
:10409C00B0FA80F04009704701230370704708B5EF
:1040AC000121052000F022FEBDE8084000210E2071
:1040BC0000F01CBE13B50E2000F029FE0C4B196845
:1040CC008142A8BF014619600A4B1C68A0420246F7
:1040DC00B8BF22461A60FF230093002300F0A2FA17
:1040EC000146052002B0BDE8104000F027BE00BF1D
:1040FC0038E603203CE6032010B5074B074A9A60CC
:10410C000024C3E90044032000F022F921460120D9
:10411C00BDE8104000F024B9ACE603200000FFFF1E
:10412C0008B5024B1B689B68019308BD680203002D
:10413C0008B5024B1B68DB68019308BD68020300DD
:10414C0008B5024B1B685B68019308BD2C02030089
:10415C0008B5024B1B689B68019308BD2C02030039
:10416C0008B5024B1B68DB68019308BD2C020300E9
:10417C0008B5024B1B689B6A019308BD2C02030017
:10418C0008B5024B1B681B6B019308BD2C02030086
:10419C0008B5024B1B689B6F019308BD2C020300F2
:1041AC0008B5024B1B685B68019308BD180203003D
:1041BC0008B5024B1B685B69019308BD180203002C
:1041CC0008B5024B1B685B6C019308BD48020300E9
:1041DC0008B5024B1B685B69019308BD64020300C0
:1041EC0008B5024B1B68DB68019308BD3C02030059
:1041FC0008B5024B1B681B69019308BD3C02030008
:10420C0008B5024B1B685B69019308BD3C020300B7
:10421C0008B5024B1B689B69019308BD3C02030067
:10422C0008B5024B1B68DB69019308BD3C02030017
:10423C0008B5024B1B681B6A019308BD3C020300C6
:10424C0008B5024B1B689B6A019308BD3C02030036
:10425C0008B5024B1B681B6C019308BD3C020300A4
:10426C0008B5024B1B681B6A019308BD28020300AA
:10427C0008B5024B1B685B6A019308BD280203005A
:10428C0008B5024B1B689B6A019308BD280203000A
:10429C0008B5024B1B68DB6A019308BD28020300BA
:1042AC0008B5024B1B681B6B019308BD2802030069
:1042BC0008B5024B1B685B6B019308BD2802030019
:1042CC0008B5024B1B681B6C019308BD2802030048
:1042DC0008B5024B1B68DB69019308BD3002030073
:1042EC0008B5024B1B681B6A019308BD3002030022
:1042FC0008B5024B1B681B68019308BD4C020300F8
:10430C0008B5024B1B681B69019308BD4C020300E6
:10431C0008B5024B1B685B69019308BD4C02030096
:10432C0008B5024B1B689B69019308BD4C02030046
:10433C0008B5024B1B68DB69019308BD4C020300F6
:10434C0008B5024B1B681B6A019308BD4C020300A5
:10435C0008B5024B1B685B68019308BD2002030083
:10436C0008B5024B1B68DB6A019308BD20020300F1
:10437C0008B5034B1B68D3F88830019308BD0000C7
:10438C002002030008B5034B1B68D3F8943001934B
:10439C0008BD00002002030008B5024B1B685B68D7
:1043AC00019308BD4002030008B5024B1B689B68D3
:1043BC00019308BD4002030008B5024B1B68DB6883
:1043CC00019308BD4002030008B5024B1B681B6932
:1043DC00019308BD4002030008B5024B1B685B69E2
:1043EC00019308BD4002030008B5024B1B689B6992
:1043FC00019308BD4002030008B5024B1B68DB6942
:10440C00019308BD4002030008B5024B1B681B6AF0
:10441C00019308BD4002030008B5024B1B681B6BDF
:10442C00019308BD4002030008B5024B1B685B6B8F
:10443C00019308BD4002030008B5024B1B681B6CBE
:10444C00019308BD4002030008B5024B1B685B6C6E
:10445C00019308BD4002030008B5024B1B68DB6BDF
:10446C00019308BD4402030008B5024B1B681B688E
:10447C00019308BD1C02030008B5024B1B685B6866
:10448C00019308BD1C02030008B5024B1B681B6C92
:10449C00019308BD1C02030008B5024B1B685B6C42
:1044AC00019308BD1C020300002240681146FFF76F
:1044BC00ABBF002240681146FFF7B6BF4068002230
:1044CC00FFF7AABF4068002281F00101FFF794BFFB
:1044DC00002340681A461946FFF786BF0023406840
:1044EC001A461946FFF778BF002240681146FFF7BD
:1044FC006BBF002240681146FFF756BF4068002290
:10450C000221FFF759BF002340681A46FFF744BF4A
:10451C00024B03225A60024A1A607047B8E6032025
:10452C001C500B0010B5044608462170FFF7D0FE56
:10453C0000236360204610BD054B02221A60054B18
:10454C00054A9A600020C3E90000FFF701BF00BFD5
:10455C00CCE60320C0E603200000FFFF0248002346
:10456C000360FFF72DBE00BFD0E60320F8B506466A
:10457C000D468F180024BD420CD0336815F8011B72
:10458C009B6830469847031E01DB1C44F3E7002C64
:10459C0008BF1C462046F8BD13B50446084659B161
:1045AC00019100F0B9FC23680199DB6802462046B2
:1045BC0002B0BDE81040184702B010BD03689B68FC
:1045CC00184730B58BB00023012A8DF8243098BFE2
:1045DC000A2209AC0D46B1FBF2F101FB125303F0B8
:1045EC00FF03092B94BF30333733DBB2AA4204F8F4
:1045FC00013DEFD92146FFF7CFFF0BB030BD0000D6
:10460C00014B024A1A607047D4E6032050500B004D
:10461C00024B1A68024B1A60704700BF40E6032039
:10462C00D8E603208A4210B507D0441A0298C01A63
:10463C004443501A94FBF0F0184410BD014B002277
:10464C009A607047DCE60320014B1860704700BF8E
:10465C0044E6032008B50B4B43B100F063F9036843
:10466C001B699847002801DDAFF30080064B43B16E
:10467C0000F0A6FB03681B699847002801DDAFF327
:10468C00008008BD000000000000000008B5FFF726
:10469C00E1FFFFF78DFD014B186008BD40E70320DB
:1046AC000548064A064908B5121A00F0F1FB054BFD
:1046BC00054A1A6008BD00BF00F4032004F403206F
:1046CC0064520B0000F403201E1C279A07B500232C
:1046DC0000931A466FF07701FFF754FE03B05DF8B4
:1046EC0004FB000007B543880A2B08D0502B0BD1D4
:1046FC00094B1B684BB103B05DF804EB1847FFF78F
:10470C00E5FF03B05DF804FB002300931A466FF03D
:10471C007701FFF737FEF4E7F0E6032010B51248F7
:10472C000021FFF7B9FE114B1A68114B9A42114B3D
:10473C000CBF012200221A7001D0FFF7B1FFFFF766
:10474C002FFD044600F0BAFB0B4B13B12046AFF320
:10475C00008000210848FFF77FFEBDE810400748A5
:10476C000021FFF705BE00BF55460B0000F40320E7
:10477C001E1C279AECE6032000000000F1460B00FB
:10478C00704710B518210446FFF77FFC204610BD7A
:10479C00F0B5037D062B8DB00E4600F104074FF0EB
:1047AC00000412D000F1080515F8011D0A2230464C
:1047BC00FFF707FFAF42044419D0002CF4D02E2190
:1047CC003046FFF7FBFE0444EEE72F236A463946DA
:1047DC000A208DF80040FFF7FBFC684600F09CFBBC
:1047EC0033680246DB6869463046984704462046E3
:1047FC000DB0F0BD10B5054B0446112240F8043B3A
:10480C00002100F053FB204610BD00BF78500B0078
:10481C000346074A10B543F8042B01F1100251F876
:10482C00044B43F8044B9142F9D10A781A7010BD2D
:10483C0078500B0010B59DF8084044EA032343EA76
:10484C00024242EA016104234160037510BD00007D
:10485C0007B5064B0360CB7800938B784A780978C0
:10486C00FFF7E8FF03B05DF804FB00BF78500B00C6
:10487C00417470477047704708B50021007CFFF702
:10488C004FFD40EAE07008BD08B50121007CFFF740
:10489C0047FD40EAE07008BD08B5007CFFF738FD25
:1048AC0020EAE07008BD08B5007CFFF729FD20EA7E
:1048BC00E07008BD13B50446007C0191FFF728FD9C
:1048CC000028019901DC607C20B1207CFFF730FDD1
:1048DC0020EAE07002B010BD007CFFF731BD10B5CE
:1048EC0014210446FFF7D1FB204610BD10B54FF440
:1048FC007A73044608460021C4E90113044B236073
:10490C000123207463741146FFF7F2FC204610BD9E
:10491C008C500B0010B514220446002100F0C6FA8E
:10492C00204610BD10B50F4C88B003A8FFF7F2FF5E
:10493C002178BFF35B8F11F001010FD1204601915B
:10494C00FFF7A5FB019948B103AA0748FFF7CEFF73
:10495C002046FFF7A1FB054800F094FA024808B086
:10496C0010BD00BFF4E60320F8E6032081480B00DD
:10497C0070474174704708B5007CFFF761FC20EA72
:10498C00E07008BD08B5007CFFF732FC20EAE0704F
:10499C0008BD08B5007CFFF73BFC40EAE07008BDA1
:1049AC0008B5007CFFF72CFC40EAE07008BD007CE9
:1049BC00FFF736BC37B5457C04462DB1207C03B0DF
:1049CC00BDE83040FFF70CBC007C0191FFF738FCD0
:1049DC0000280199F2DC284603B030BD10B5142133
:1049EC000446FFF752FB204610BD000010B54FF4F3
:1049FC007A730446084611460022C4E90123044B8D
:104A0C002360012320746374FFF722FC204610BD41
:104A1C00BC500B007047F8B5064615460C468F186F
:104A2C00BC4206D0336814F8011B9B68304698478B
:104A3C00F6E72846F8BD007C0022FFF711BC007C8D
:104A4C000021FFF715BC007C0021FFF719BC007C8E
:104A5C000021FFF71DBC007C0021FFF721BC10B525
:104A6C0014210446FFF711FB204610BD10B54FF47E
:104A7C007A73044608460021C4E90113034B2360F2
:104A8C0020741146FFF71CFC204610BDEC500B00A7
:104A9C00002240681146FFF797BC0022406811467F
:104AAC00FFF7B2BC002240681146FFF7BDBC40685E
:104ABC000022FFF7B1BC4068002281F00101FFF732
:104ACC009BBC002340681A461946FFF78DBC002397
:104ADC0040681A461946FFF77FBC00224068114611
:104AEC00FFF762BC406800220221FFF765BC00237F
:104AFC0040681A46FFF750BC024B04225A60024A27
:104B0C001A6070470CE7032014510B000023406817
:104B1C001A46FFF741BC406800220221FFF74CBC4B
:104B2C00002240681146FFF73FBC00224068114646
:104B3C00FFF74ABC002340681A461946FFF74CBCE5
:104B4C00002340681A461946FFF74EBC4068002106
:104B5C00FFF772BC40680021FFF776BC406800226A
:104B6C0081F00101FFF748BC40680022FFF754BCFC
:104B7C00002240681146FFF757BC002240681146DE
:104B8C00FFF742BC2DE9F04395B014460D4607469D
:104B9C00FFF730FE00211C220DA8009100F086F9D1
:104BAC0040230C9320466B460CAA0021FFF7C0FA59
:104BBC00044600284BD1024601216868FFF704FC2B
:104BCC000221804622466868FFF7FEFB009E814664
:104BDC002146002E3BD0002939D17368022B03D01B
:104BEC000A2B11D0F669F4E7B8F1000FFAD071690D
:104BFC0006A8043107ADFFF72BFE0FCD3C1D0FC4EB
:104C0C002B6823704146EDE7B9F1000FEAD07469C7
:104C1C00102201A800F04AF906238DF8143001ADDA
:104C2C0004F108031834186859682A4603C208337B
:104C3C00A3421546F7D101A906A807ADFFF7E8FD79
:104C4C000FCD3C1D0FC42B6823704946CAE7009852
:104C5C00FFF766FA384615B0BDE8F083024B034AFD
:104C6C001A6000225A60704714E7032050510B0061
:104C7C00232813B502D9002002B010BDA0F10B03FC
:104C8C00022B1AD8174C2178BFF35B8F11F001015E
:104C9C000BD120460191FFF7FAF9019928B112487E
:104CAC00FFF740FC2046FFF7F7F90F4B1878FFF79A
:104CBC0017FB0028DFD10120DEE7012809D800F01E
:104CCC00BBF80021007CFFF7F3FA80F00100C0B2C2
:104CDC00D2E709380128EED800F072F8007CFFF713
:104CEC00A7FAF2E71CE7032020E70320232838B5B6
:104CFC0004460D460AD8FF2908D0FFF7B9FF28B1A2
:104D0C0029462046BDE83840FFF722BA38BD0D28A9
:104D1C0010B504469CBF0E34A4B22046FFF7A8FF82
:104D2C0050B103212046FFF70BFA032804D120468B
:104D3C00BDE81040FFF724BA002010BD38B504467A
:104D4C000D46FFF795FFF0B104212046FFF7F8F967
:104D5C00042805D1A9B22046BDE83840FFF708BAAF
:104D6C0002212046FFF7ECF902280CD12046FFF770
:104D7C00F7F9012801D0042805D129462046BDE8C1
:104D8C003840FFF705BA38BD7047000038B5044607
:104D9C0014252A46002100F089F825804025074972
:104DAC0025812846258200F06BF80449606028466E
:104DBC0000F066F8E060204638BD00BF84510B005F
:104DCC0030B50E4D2978BFF35B8F11F0010487B01D
:104DDC0011D12846FFF75BF968B101A8FFF7D6FFA0
:104DEC0001AA21460648FFF701FE2846FFF754F9B1
:104DFC00044800F047F8024807B030BD28E703200C
:104E0C002CE70320954D0B007047000038B520258A
:104E1C00142304460360856005610649284600F0AA
:104E2C002FF804496060284600F02AF8E06020461C
:104E3C0038BD00BF84510B0030B50E4D2978BFF33F
:104E4C005B8F11F0010487B011D12846FFF71FF9D1
:104E5C0068B101A8FFF7DAFF01AA21460648FFF75F
:104E6C0005FE2846FFF718F9044800F00BF8024835
:104E7C0007B030BD44E7032048E70320154E0B0074
:104E8C00FFF701B9002301461A46184600F04CB84A
:104E9C000A44914200F1FF3300D1704710B511F86C
:104EAC00014B03F8014F9142F9D110BD0244034666
:104EBC00934200D1704703F8011BF9E738B5104B4A
:104ECC001D68AB6B0446B3B91820FFF7CDFA024648
:104EDC00A86320B90B4B0C484221FFF7D5FA0B49BC
:104EEC000B4BC0E900130B4B83600B238381002118
:104EFC000120C2E90401AB6B00221C615A6138BD70
:104F0C0044E6032085510B009C510B000E33CDABB6
:104F1C0034126DE6ECDE0500034613F8012B002A73
:104F2C00FBD1181A013870472DE9F843DFF8B88027
:104F3C000646D8F800001F460D46914600F056F87C
:104F4C00254B1C6834B9254C1C60254B13B11B68D0
:104F5C00C4F8883063681F2B07DDD8F8000000F018
:104F6C0047F84FF0FF30BDE8F8834EB3D4F8880013
:104F7C0088B91C4B23B9D8F8000000F038F8F0E7DA
:104F8C004FF48470FFF770FA0028F4D00023C0E9C6
:104F9C004033C4F88800636840F8239001229A409B
:104FAC0000EB8301D0F800311343C0F80031022E1E
:104FBC00C1F8807002BFD0F804311343C0F804313B
:104FCC006368D8F800005A1C0233626044F823501E
:104FDC0000F00EF80020C6E7E8E703205CE70320AA
:104FEC000000000075440B00A8E6032070477047D2
:104FFC00704700001D400B0059400B0081400B0016
:10500C0085400B00000000000000000000000000C4
:10501C0013450B0009450B00FF440B00F5440B0036
:10502C00E9440B00DD440B00594B0B00614B0B00AA
:10503C00D1440B00C9440B00BF440B00B5440B001A
:10504C00914B0B006170700025592D256D2D256439
:10505C005425483A254D3A2553257A0061736374DB
:10506C00696D650000000000000000009D470B000A
:10507C008D470B008F470B00000000000000000064
:10508C0083480B00EB480B00C1480B0079450B0023
:10509C00B3480B0085480B0095480B00E5480B0006
:1050AC00A5480B007D480B0000000000000000002C
:1050BC007D490B00E9490B00C1490B0079450B00F8
:1050CC0091490B00AD490B009F490B00BB490B00EC
:1050DC007F490B0083490B0000000000000000001A
:1050EC00214A0B006B4A0B00434A0B00234A0B006E
:1050FC004B4A0B00534A0B005B4A0B00634A0B00F4
:10510C000000000000000000FB4A0B00F14A0B00FD
:10511C00E74A0B009D4A0B00DB4A0B00CF4A0B0001
:10512C00594B0B00614B0B00C34A0B00BB4A0B00E5
:10513C00B14A0B00A74A0B00914B0B00000000007A
:10514C0000000000194B0B00234B0B002D4B0B00E8
:10515C00374B0B00414B0B004D4B0B00594B0B00CD
:10516C00614B0B00694B0B00754B0B007D4B0B001F
:10517C00874B0B00914B0B00005245454E54206D54
:10518C00616C6C6F63207375636365656465640043
:10519C002F6D6E742F776F726B73706163652F77E1
:1051AC006F726B73706163652F4743432D31302DE4
:1051BC00706970656C696E652F6A656E6B696E736C
:1051CC002D4743432D31302D706970656C696E65C8
:1051DC002D34385F32303230313132345F31363049
:1051EC00363138303634312F7372632F6E65776CED
:1051FC0069622F6E65776C69622F6C6962632F73BD
:10520C0074646C69622F72616E642E63000000001E
:10521C0005410B001D450B0045450B0069450B0076
:10522C000D460B001D460B0049460B00054B0B00B1
:04523C00694C0B00AE
:10524000040000001400000003000000474E550059
:105250008C95F7FE6EA40B5C54D2A12676FDAC278C
:0452600054D4934B44
:045264000000000046
:10526800A00F00000A00000068500B0048E6032069
:105278000000000000000000000000000000000026
:105288000000000000000000000000000000000016
:105298000000000000000000000000000000000006
:1052A80000000000000000000000000000000000F6
:1052B80000000000000000000000000000000000E6
:1052C80000000000000000000000000000000000D6
:0452D800ECE70320DC
:1052DC00FFFFFFFF00000102030405060708090A8F
:1052EC000B0C0D0E0F101112131415161718191A8A
:0852FC001B1C1D1E1F202800D1
:045304007856341291
:04000003B000401CED
:00000001FF
